{
  "_format": "hh-sol-artifact-1",
  "contractName": "Piggie",
  "sourceName": "contracts/piggyContract.sol",
  "abi": [
    {
      "inputs": [],
      "name": "boxBalance",
      "outputs": [
        {
          "internalType": "uint256",
          "name": "",
          "type": "uint256"
        }
      ],
      "stateMutability": "view",
      "type": "function"
    },
    {
      "inputs": [
        {
          "internalType": "uint256",
          "name": "_locktime",
          "type": "uint256"
        },
        {
          "internalType": "uint256",
          "name": "_amount",
          "type": "uint256"
        }
      ],
      "name": "createBox",
      "outputs": [],
      "stateMutability": "nonpayable",
      "type": "function"
    },
    {
      "inputs": [
        {
          "internalType": "uint256",
          "name": "_amount",
          "type": "uint256"
        }
      ],
      "name": "depositFunds",
      "outputs": [],
      "stateMutability": "nonpayable",
      "type": "function"
    },
    {
      "inputs": [],
      "name": "numberDays",
      "outputs": [
        {
          "internalType": "uint256",
          "name": "",
          "type": "uint256"
        }
      ],
      "stateMutability": "view",
      "type": "function"
    },
    {
      "inputs": [],
      "name": "withdraw",
      "outputs": [],
      "stateMutability": "nonpayable",
      "type": "function"
    }
  ],
  "bytecode": "0x608060405234801561001057600080fd5b5061038c806100206000396000f3fe608060405234801561001057600080fd5b50600436106100575760003560e01c80631582c25b1461005c5780633b76594d146100775780633ccfd60b1461008c5780636d0f1eb514610094578063d2b3ef88146100d9575b600080fd5b61006560005481565b60405190815260200160405180910390f35b61008a6100853660046102d9565b6100e2565b005b61008a6101c8565b61008a6100a23660046102f2565b336000818152600260208190526040822080546001600160a01b031916909317835560018084018690559201928355929055549055565b61006560015481565b336000818152600260205260409020546001600160a01b0316146101455760405162461bcd60e51b81526020600482015260156024820152743cb7ba9030b932903737ba103a34329037bbb732b960591b60448201526064015b60405180910390fd5b60018110156101895760405162461bcd60e51b815260206004820152601060248201526f105b5bdd5b9d081d1bdbc81cdb585b1b60821b604482015260640161013c565b33600090815260026020819052604082200180548392906101ab90849061032a565b909155505033600090815260026020819052604082200154905550565b336000818152600260205260409020546001600160a01b0316146102265760405162461bcd60e51b81526020600482015260156024820152743cb7ba9030b932903737ba103a34329037bbb732b960591b604482015260640161013c565b33600090815260026020819052604082200154905411156102a15760405162461bcd60e51b815260206004820152602f60248201527f596f752063616e2774207769746864726177206d6f7265207468616e2077686160448201526e1d081e5bdd4819195c1bdcda5d1959608a1b606482015260840161013c565b600080543382526002602081905260408320018054919290916102c5908490610343565b909155505033600090815260026020528055565b6000602082840312156102eb57600080fd5b5035919050565b6000806040838503121561030557600080fd5b50508035926020909101359150565b634e487b7160e01b600052601160045260246000fd5b8082018082111561033d5761033d610314565b92915050565b8181038181111561033d5761033d61031456fea2646970667358221220873c448077539940c2a963f3fedde7ce761a59232a91809918d5c8d43fb4a09d64736f6c63430008110033",
  "linkReferences": {},
  "deployedLinkReferences": {}
}